{
  "abi": [
    {
      "inputs": [
        {
          "internalType": "uint256",
          "name": "a",
          "type": "uint256"
        },
        {
          "internalType": "uint256",
          "name": "b",
          "type": "uint256"
        }
      ],
      "name": "add",
      "outputs": [
        {
          "internalType": "uint256",
          "name": "",
          "type": "uint256"
        }
      ],
      "stateMutability": "pure",
      "type": "function"
    },
    {
      "inputs": [
        {
          "internalType": "uint256",
          "name": "a",
          "type": "uint256"
        },
        {
          "internalType": "uint256",
          "name": "b",
          "type": "uint256"
        }
      ],
      "name": "subtract",
      "outputs": [
        {
          "internalType": "uint256",
          "name": "",
          "type": "uint256"
        }
      ],
      "stateMutability": "pure",
      "type": "function"
    }
  ],
  "bytecode": "610178610039600b82828239805160001a607314602c57634e487b7160e01b600052600060045260246000fd5b30600052607381538281f3fe73000000000000000000000000000000000000000030146080604052600436106100405760003560e01c80633ef5e44514610045578063771602f71461006a575b600080fd5b6100586100533660046100e4565b61007d565b60405190815260200160405180910390f35b6100586100783660046100e4565b6100d8565b6000828211156100c55760405162461bcd60e51b815260206004820152600f60248201526e2ab73232b9333637bb9032b93937b960891b604482015260640160405180910390fd5b6100cf828461011c565b90505b92915050565b60006100cf828461012f565b600080604083850312156100f757600080fd5b50508035926020909101359150565b634e487b7160e01b600052601160045260246000fd5b818103818111156100d2576100d2610106565b808201808211156100d2576100d261010656fea2646970667358221220e4312d3eba376eba2eadd21c8a057e6562b71a9e5835662d8ada5ee73287d4d564736f6c634300081c0033",
  "bytecodeSha1": "c5b01a8b4c2f9b088e5ac8b6146ca0b109f8f15e",
  "compiler": {
    "evm_version": "istanbul",
    "optimizer": {
      "enabled": true,
      "runs": 200
    },
    "version": "0.8.28+commit.7893614a"
  },
  "contractName": "MathLibrary",
  "language": "Solidity",
  "natspec": {
    "kind": "dev",
    "methods": {},
    "version": 1
  },
  "opcodes": "PUSH20 0x0 ADDRESS EQ PUSH1 0x80 PUSH1 0x40 MSTORE PUSH1 0x4 CALLDATASIZE LT PUSH2 0x40 JUMPI PUSH1 0x0 CALLDATALOAD PUSH1 0xE0 SHR DUP1 PUSH4 0x3EF5E445 EQ PUSH2 0x45 JUMPI DUP1 PUSH4 0x771602F7 EQ PUSH2 0x6A JUMPI JUMPDEST PUSH1 0x0 DUP1 REVERT JUMPDEST PUSH2 0x58 PUSH2 0x53 CALLDATASIZE PUSH1 0x4 PUSH2 0xE4 JUMP JUMPDEST PUSH2 0x7D JUMP JUMPDEST PUSH1 0x40 MLOAD SWAP1 DUP2 MSTORE PUSH1 0x20 ADD PUSH1 0x40 MLOAD DUP1 SWAP2 SUB SWAP1 RETURN JUMPDEST PUSH2 0x58 PUSH2 0x78 CALLDATASIZE PUSH1 0x4 PUSH2 0xE4 JUMP JUMPDEST PUSH2 0xD8 JUMP JUMPDEST PUSH1 0x0 DUP3 DUP3 GT ISZERO PUSH2 0xC5 JUMPI PUSH1 0x40 MLOAD PUSH3 0x461BCD PUSH1 0xE5 SHL DUP2 MSTORE PUSH1 0x20 PUSH1 0x4 DUP3 ADD MSTORE PUSH1 0xF PUSH1 0x24 DUP3 ADD MSTORE PUSH15 0x2AB73232B9333637BB9032B93937B9 PUSH1 0x89 SHL PUSH1 0x44 DUP3 ADD MSTORE PUSH1 0x64 ADD PUSH1 0x40 MLOAD DUP1 SWAP2 SUB SWAP1 REVERT JUMPDEST PUSH2 0xCF DUP3 DUP5 PUSH2 0x11C JUMP JUMPDEST SWAP1 POP JUMPDEST SWAP3 SWAP2 POP POP JUMP JUMPDEST PUSH1 0x0 PUSH2 0xCF DUP3 DUP5 PUSH2 0x12F JUMP JUMPDEST PUSH1 0x0 DUP1 PUSH1 0x40 DUP4 DUP6 SUB SLT ISZERO PUSH2 0xF7 JUMPI PUSH1 0x0 DUP1 REVERT JUMPDEST POP POP DUP1 CALLDATALOAD SWAP3 PUSH1 0x20 SWAP1 SWAP2 ADD CALLDATALOAD SWAP2 POP JUMP JUMPDEST PUSH4 0x4E487B71 PUSH1 0xE0 SHL PUSH1 0x0 MSTORE PUSH1 0x11 PUSH1 0x4 MSTORE PUSH1 0x24 PUSH1 0x0 REVERT JUMPDEST DUP2 DUP2 SUB DUP2 DUP2 GT ISZERO PUSH2 0xD2 JUMPI PUSH2 0xD2 PUSH2 0x106 JUMP JUMPDEST DUP1 DUP3 ADD DUP1 DUP3 GT ISZERO PUSH2 0xD2 JUMPI PUSH2 0xD2 PUSH2 0x106 JUMP INVALID LOG2 PUSH5 0x6970667358 0x22 SLT KECCAK256 0xE4 BALANCE 0x2D RETURNDATACOPY 0xBA CALLDATACOPY PUSH15 0xBA2EADD21C8A057E6562B71A9E5835 PUSH7 0x2D8ADA5EE73287 0xD4 0xD5 PUSH5 0x736F6C6343 STOP ADDMOD SHR STOP CALLER ",
  "sha1": "5e248e0cceba456853fd2f108bd216d9712225cf",
  "source": "// SPDX-License-Identifier: MIT\npragma solidity ^0.8.0;\n\nlibrary MathLibrary {\n    function add(uint256 a, uint256 b) public pure returns (uint256) {\n        return a + b;\n    }\n\n    function subtract(uint256 a, uint256 b) public pure returns (uint256) {\n        require(b <= a, \"Underflow error\");\n        return a - b;\n    }\n}\n",
  "sourcePath": "contracts/OtherContract.sol",
  "type": "library"
}